{
    "contractName": "AirdropChannels",
    "abi": [
        {
            "anonymous": false,
            "inputs": [
                {
                    "indexed": true,
                    "internalType": "address",
                    "name": "_admin",
                    "type": "address"
                },
                {
                    "indexed": true,
                    "internalType": "bool",
                    "name": "_adminSet",
                    "type": "bool"
                }
            ],
            "name": "AdminSet",
            "type": "event"
        },
        {
            "anonymous": false,
            "inputs": [
                {
                    "indexed": true,
                    "internalType": "bytes32",
                    "name": "_channelId",
                    "type": "bytes32"
                }
            ],
            "name": "AirDropDispersed",
            "type": "event"
        },
        {
            "anonymous": false,
            "inputs": [
                {
                    "indexed": true,
                    "internalType": "bytes32",
                    "name": "_channelId",
                    "type": "bytes32"
                }
            ],
            "name": "AirDropsEnabled",
            "type": "event"
        },
        {
            "anonymous": false,
            "inputs": [
                {
                    "indexed": true,
                    "internalType": "bytes32",
                    "name": "_channelId",
                    "type": "bytes32"
                }
            ],
            "name": "ChannelClosed",
            "type": "event"
        },
        {
            "anonymous": false,
            "inputs": [
                {
                    "indexed": true,
                    "internalType": "bytes32",
                    "name": "_channelId",
                    "type": "bytes32"
                }
            ],
            "name": "ChannelOpened",
            "type": "event"
        },
        {
            "anonymous": false,
            "inputs": [
                {
                    "indexed": true,
                    "internalType": "address",
                    "name": "_previousOwner",
                    "type": "address"
                },
                {
                    "indexed": true,
                    "internalType": "address",
                    "name": "_newOwner",
                    "type": "address"
                },
                {
                    "indexed": true,
                    "internalType": "bool",
                    "name": "_ownershipTransferred",
                    "type": "bool"
                }
            ],
            "name": "OwnershipTransferred",
            "type": "event"
        },
        {
            "anonymous": false,
            "inputs": [
                {
                    "indexed": false,
                    "internalType": "bytes32",
                    "name": "_h",
                    "type": "bytes32"
                },
                {
                    "indexed": false,
                    "internalType": "bytes32",
                    "name": "_proof",
                    "type": "bytes32"
                },
                {
                    "indexed": false,
                    "internalType": "bytes32",
                    "name": "prefixedProof",
                    "type": "bytes32"
                },
                {
                    "indexed": false,
                    "internalType": "address",
                    "name": "signer",
                    "type": "address"
                }
            ],
            "name": "SigDebug",
            "type": "event"
        },
        {
            "anonymous": false,
            "inputs": [
                {
                    "indexed": true,
                    "internalType": "address",
                    "name": "signer",
                    "type": "address"
                }
            ],
            "name": "SignatureRecovered",
            "type": "event"
        },
        {
            "stateMutability": "payable",
            "type": "fallback"
        },
        {
            "inputs": [],
            "name": "VERSION",
            "outputs": [
                {
                    "internalType": "string",
                    "name": "",
                    "type": "string"
                }
            ],
            "stateMutability": "view",
            "type": "function"
        },
        {
            "inputs": [],
            "name": "admin",
            "outputs": [
                {
                    "internalType": "address",
                    "name": "",
                    "type": "address"
                }
            ],
            "stateMutability": "view",
            "type": "function"
        },
        {
            "inputs": [
                {
                    "internalType": "bytes32",
                    "name": "",
                    "type": "bytes32"
                }
            ],
            "name": "channels",
            "outputs": [
                {
                    "internalType": "address",
                    "name": "source",
                    "type": "address"
                },
                {
                    "internalType": "address",
                    "name": "tokenAddress",
                    "type": "address"
                },
                {
                    "internalType": "uint256",
                    "name": "value",
                    "type": "uint256"
                },
                {
                    "internalType": "uint256",
                    "name": "closingDate",
                    "type": "uint256"
                },
                {
                    "internalType": "uint256",
                    "name": "openDate",
                    "type": "uint256"
                },
                {
                    "internalType": "uint256",
                    "name": "dropAmount",
                    "type": "uint256"
                },
                {
                    "internalType": "uint256",
                    "name": "totalDrops",
                    "type": "uint256"
                },
                {
                    "internalType": "bytes32",
                    "name": "channelId",
                    "type": "bytes32"
                },
                {
                    "internalType": "contract ERC20Interface",
                    "name": "intf",
                    "type": "address"
                },
                {
                    "internalType": "enum AirdropChannels.ChannelStates",
                    "name": "state",
                    "type": "uint8"
                }
            ],
            "stateMutability": "view",
            "type": "function"
        },
        {
            "inputs": [
                {
                    "internalType": "bytes32",
                    "name": "_h",
                    "type": "bytes32"
                },
                {
                    "internalType": "uint8",
                    "name": "_v",
                    "type": "uint8"
                },
                {
                    "internalType": "bytes32",
                    "name": "_r",
                    "type": "bytes32"
                },
                {
                    "internalType": "bytes32",
                    "name": "_s",
                    "type": "bytes32"
                },
                {
                    "internalType": "bytes32",
                    "name": "_channelId",
                    "type": "bytes32"
                }
            ],
            "name": "closeChannel",
            "outputs": [
                {
                    "internalType": "bool",
                    "name": "",
                    "type": "bool"
                }
            ],
            "stateMutability": "nonpayable",
            "type": "function"
        },
        {
            "inputs": [],
            "name": "dev",
            "outputs": [
                {
                    "internalType": "bool",
                    "name": "",
                    "type": "bool"
                }
            ],
            "stateMutability": "view",
            "type": "function"
        },
        {
            "inputs": [
                {
                    "internalType": "bytes32",
                    "name": "_h",
                    "type": "bytes32"
                },
                {
                    "internalType": "uint8",
                    "name": "_v",
                    "type": "uint8"
                },
                {
                    "internalType": "bytes32",
                    "name": "_r",
                    "type": "bytes32"
                },
                {
                    "internalType": "bytes32",
                    "name": "_s",
                    "type": "bytes32"
                },
                {
                    "internalType": "bytes32",
                    "name": "_channelId",
                    "type": "bytes32"
                },
                {
                    "internalType": "uint256",
                    "name": "_id",
                    "type": "uint256"
                }
            ],
            "name": "enableAirdrops",
            "outputs": [
                {
                    "internalType": "bool",
                    "name": "",
                    "type": "bool"
                }
            ],
            "stateMutability": "nonpayable",
            "type": "function"
        },
        {
            "inputs": [],
            "name": "frozen",
            "outputs": [
                {
                    "internalType": "bool",
                    "name": "",
                    "type": "bool"
                }
            ],
            "stateMutability": "view",
            "type": "function"
        },
        {
            "inputs": [
                {
                    "internalType": "address",
                    "name": "",
                    "type": "address"
                }
            ],
            "name": "moderators",
            "outputs": [
                {
                    "internalType": "bool",
                    "name": "",
                    "type": "bool"
                }
            ],
            "stateMutability": "view",
            "type": "function"
        },
        {
            "inputs": [
                {
                    "internalType": "address",
                    "name": "_tokenAddress",
                    "type": "address"
                },
                {
                    "internalType": "uint256",
                    "name": "_channelValue",
                    "type": "uint256"
                },
                {
                    "internalType": "uint256",
                    "name": "_durationInDays",
                    "type": "uint256"
                },
                {
                    "internalType": "uint256",
                    "name": "_dropAmount",
                    "type": "uint256"
                }
            ],
            "name": "openChannel",
            "outputs": [
                {
                    "internalType": "bool",
                    "name": "",
                    "type": "bool"
                }
            ],
            "stateMutability": "payable",
            "type": "function"
        },
        {
            "inputs": [],
            "name": "owner",
            "outputs": [
                {
                    "internalType": "address",
                    "name": "",
                    "type": "address"
                }
            ],
            "stateMutability": "view",
            "type": "function"
        },
        {
            "inputs": [
                {
                    "internalType": "bytes32",
                    "name": "_h",
                    "type": "bytes32"
                },
                {
                    "internalType": "uint8",
                    "name": "_v",
                    "type": "uint8"
                },
                {
                    "internalType": "bytes32",
                    "name": "_r",
                    "type": "bytes32"
                },
                {
                    "internalType": "bytes32",
                    "name": "_s",
                    "type": "bytes32"
                },
                {
                    "internalType": "bytes32",
                    "name": "_channelId",
                    "type": "bytes32"
                },
                {
                    "internalType": "uint256",
                    "name": "_id",
                    "type": "uint256"
                }
            ],
            "name": "retrieveAirdrop",
            "outputs": [
                {
                    "internalType": "bool",
                    "name": "",
                    "type": "bool"
                }
            ],
            "stateMutability": "nonpayable",
            "type": "function"
        },
        {
            "inputs": [
                {
                    "internalType": "address",
                    "name": "_newAdmin",
                    "type": "address"
                }
            ],
            "name": "setAdmin",
            "outputs": [
                {
                    "internalType": "bool",
                    "name": "",
                    "type": "bool"
                }
            ],
            "stateMutability": "nonpayable",
            "type": "function"
        },
        {
            "inputs": [
                {
                    "internalType": "address",
                    "name": "_newOwner",
                    "type": "address"
                }
            ],
            "name": "transferOwnership",
            "outputs": [
                {
                    "internalType": "bool",
                    "name": "",
                    "type": "bool"
                }
            ],
            "stateMutability": "nonpayable",
            "type": "function"
        },
        {
            "inputs": [
                {
                    "internalType": "bytes32",
                    "name": "_h",
                    "type": "bytes32"
                },
                {
                    "internalType": "uint8",
                    "name": "_v",
                    "type": "uint8"
                },
                {
                    "internalType": "bytes32",
                    "name": "_r",
                    "type": "bytes32"
                },
                {
                    "internalType": "bytes32",
                    "name": "_s",
                    "type": "bytes32"
                }
            ],
            "name": "verifyProof",
            "outputs": [
                {
                    "internalType": "address",
                    "name": "",
                    "type": "address"
                }
            ],
            "stateMutability": "pure",
            "type": "function"
        },
        {
            "inputs": [],
            "name": "withdrawEth",
            "outputs": [
                {
                    "internalType": "bool",
                    "name": "",
                    "type": "bool"
                }
            ],
            "stateMutability": "nonpayable",
            "type": "function"
        },
        {
            "stateMutability": "payable",
            "type": "receive"
        }
    ],
    "bytecode": "60c0604052601c60808190527f19457468657265756d205369676e6564204d6573736167653a0a33320000000060a090815261003e9160039190610080565b506004805460ff1916600117905534801561005857600080fd5b5060008054336001600160a01b03199182168117909255600180549091169091179055610113565b828054600181600116156101000203166002900490600052602060002090601f016020900481019282601f106100c157805160ff19168380011785556100ee565b828001600101855582156100ee579182015b828111156100ee5782518255916020019190600101906100d3565b506100fa9291506100fe565b5090565b5b808211156100fa57600081556001016100ff565b6111f580620001236000396000f3fe6080604052600436106100ec5760003560e01c80638da5cb5b1161008a578063f2fde38b11610059578063f2fde38b1461039e578063f36bdb49146103d1578063f851a44014610409578063ffa1ad741461041e576100f3565b80638da5cb5b1461030457806391456d3d1461033557806391cca3db14610374578063a0ef91df14610389576100f3565b806356715148116100c6578063567151481461019c5780635c9bd273146101e7578063704b6c021461022c5780637a7ebd7b1461025f576100f3565b8063054f7d9c146100f557806314d0f1ba1461011e578063515982f614610151576100f3565b366100f357005b005b34801561010157600080fd5b5061010a6104a8565b604080519115158252519081900360200190f35b34801561012a57600080fd5b5061010a6004803603602081101561014157600080fd5b50356001600160a01b03166104b8565b34801561015d57600080fd5b5061010a600480360360c081101561017457600080fd5b5080359060ff6020820135169060408101359060608101359060808101359060a001356104cd565b3480156101a857600080fd5b5061010a600480360360c08110156101bf57600080fd5b5080359060ff6020820135169060408101359060608101359060808101359060a00135610822565b3480156101f357600080fd5b5061010a600480360360a081101561020a57600080fd5b5080359060ff6020820135169060408101359060608101359060800135610ad0565b34801561023857600080fd5b5061010a6004803603602081101561024f57600080fd5b50356001600160a01b0316610d37565b34801561026b57600080fd5b506102896004803603602081101561028257600080fd5b5035610db5565b604051808b6001600160a01b031681526020018a6001600160a01b03168152602001898152602001888152602001878152602001868152602001858152602001848152602001836001600160a01b031681526020018260028111156102ea57fe5b81526020019a505050505050505050505060405180910390f35b34801561031057600080fd5b50610319610e1b565b604080516001600160a01b039092168252519081900360200190f35b34801561034157600080fd5b506103196004803603608081101561035857600080fd5b5080359060ff6020820135169060408101359060600135610e2a565b34801561038057600080fd5b5061010a610e9a565b34801561039557600080fd5b5061010a610ea3565b3480156103aa57600080fd5b5061010a600480360360208110156103c157600080fd5b50356001600160a01b0316610f13565b61010a600480360360808110156103e757600080fd5b506001600160a01b038135169060208101359060408101359060600135610f94565b34801561041557600080fd5b5061031961115c565b34801561042a57600080fd5b5061043361116b565b6040805160208082528351818301528351919283929083019185019080838360005b8381101561046d578181015183820152602001610455565b50505050905090810190601f16801561049a5780820380516001836020036101000a031916815260200191505b509250505060405180910390f35b600154600160a01b900460ff1681565b60026020526000908152604090205460ff1681565b60008281526005602052604081205460ff166104e857600080fd5b6001600084815260066020526040902060080154600160a01b900460ff16600281111561051157fe5b1461051b57600080fd5b60008381526006602052604090206005810154600290910154101561053f57600080fd5b600083815260076020908152604080832033845290915290205460ff161561056657600080fd5b600083833360405160200180848152602001838152602001826001600160a01b031660601b81526014019350505050604051602081830303815290604052805190602001209050600060038260405160200180838054600181600116156101000203166002900480156106105780601f106105ee576101008083540402835291820191610610565b820191906000526020600020905b8154815290600101906020018083116105fc575b505082815260200192505050604051602081830303815290604052805190602001209050600060018a8a8a8a60405160008152602001604052604051808581526020018460ff1681526020018381526020018281526020019450505050506020604051602081039080840390855afa158015610690573d6000803e3d6000fd5b505060408051601f1901516000898152600660205291909120549092506001600160a01b0380841691161490506106c357fe5b8982146106cc57fe5b60008681526007602090815260408083203384528252808320805460ff1916600117905588835260069091529020600581015460029091015461070e91611191565b6000878152600660208190526040909120600281019290925501546107349060016111a6565b600087815260066020819052604080832090910192909255905187917fa467a409776bfc50e32dd8496edd970b5e7a84a38acda61529d8022bf757c2fd91a260008681526006602090815260408083206008810154600590910154825163a9059cbb60e01b8152336004820152602481019190915291516001600160a01b039091169363a9059cbb93604480850194919392918390030190829087803b1580156107dd57600080fd5b505af11580156107f1573d6000803e3d6000fd5b505050506040513d602081101561080757600080fd5b505161081257600080fd5b5060019998505050505050505050565b60008281526005602052604081205460ff1661083d57600080fd5b60008084815260066020526040902060080154600160a01b900460ff16600281111561086557fe5b1461086f57600080fd5b6000838152600660205260409020546001600160a01b0316331461089257600080fd5b600083836040516020018083815260200182815260200192505050604051602081830303815290604052805190602001209050600060038260405160200180838054600181600116156101000203166002900480156109285780601f10610906576101008083540402835291820191610928565b820191906000526020600020905b815481529060010190602001808311610914575b505082815260200192505050604051602081830303815290604052805190602001209050600060018a8a8a8a60405160008152602001604052604051808581526020018460ff1681526020018381526020018281526020019450505050506020604051602081039080840390855afa1580156109a8573d6000803e3d6000fd5b505060408051601f1901516000898152600660205291909120549092506001600160a01b0380841691161490506109db57fe5b8982146109e457fe5b6000868152600660205260409020600801805460ff60a01b1916600160a01b17905560045460ff1615610a6157604080518b8152602081018590528082018490526001600160a01b038316606082015290517f6b7f08f909e42085ce2477fcf9f51be4ff86e5bcc7936c2dbe39e6757d33f9149181900360800190a15b60405186907ff857a98ed55303cc061ea3bc4c498fe49361c82cb72894280249b89848f9ce4690600090a26040516001600160a01b038216907f5c001d7523e0202fd001401f8393d128fbb1fafa8f637949f7d231d814f93b1390600090a25060019998505050505050505050565b60008181526005602052604081205460ff16610aeb57600080fd5b60008083815260066020526040902060080154600160a01b900460ff166002811115610b1357fe5b1480610b4557506001600083815260066020526040902060080154600160a01b900460ff166002811115610b4357fe5b145b610b4e57600080fd5b60045460ff16610b75576000828152600660205260409020600301544211610b7557600080fd5b6000828152600660205260409020546001600160a01b03163314610b9857600080fd5b600060018787878760405160008152602001604052604051808581526020018460ff1681526020018381526020018281526020019450505050506020604051602081039080840390855afa158015610bf4573d6000803e3d6000fd5b505060408051601f1901516000868152600660205291909120549092506001600160a01b038084169116149050610c2757fe5b600083815260066020526040902060088101805460ff60a01b1916600160a11b1790554260038201556002015415610cff57600083815260066020908152604080832060028101805490859055600890910154825163a9059cbb60e01b815233600482015260248101839052925191946001600160a01b039091169363a9059cbb936044808201949293918390030190829087803b158015610cc857600080fd5b505af1158015610cdc573d6000803e3d6000fd5b505050506040513d6020811015610cf257600080fd5b5051610cfd57600080fd5b505b60405183907fceeab2eef998c17fe96f30f83fbf3c55fc5047f6e40c55a0cf72d236e9d2ba7290600090a25060019695505050505050565b600080546001600160a01b03163314610d4f57600080fd5b6001546001600160a01b0383811691161415610d6a57600080fd5b600180546001600160a01b0319166001600160a01b03841690811782556040517fe68d2c359a771606c400cf8b87000cf5864010363d6a736e98f5047b7bbe18e990600090a3919050565b60066020819052600091825260409091208054600182015460028301546003840154600485015460058601549686015460078701546008909701546001600160a01b0396871698958716979496939592949293919291811690600160a01b900460ff168a565b6000546001600160a01b031681565b600060018585858560405160008152602001604052604051808581526020018460ff1681526020018381526020018281526020019450505050506020604051602081039080840390855afa158015610e86573d6000803e3d6000fd5b5050604051601f1901519695505050505050565b60045460ff1681565b600080546001600160a01b0316331480610ec757506001546001600160a01b031633145b610ed057600080fd5b60045460ff16610edf57600080fd5b60405133904780156108fc02916000818181858888f19350505050158015610f0b573d6000803e3d6000fd5b506001905090565b600080546001600160a01b03163314610f2b57600080fd5b6000546001600160a01b0383811691161415610f4657600080fd5b600080546001600160a01b0319166001600160a01b038416908117825560405160019233917f7fdc2a4b6eb39ec3363d710d188620bd1e97b3c434161f187b4d0dc0544faa589190a4919050565b6040805133606090811b6020808401919091529087901b6bffffffffffffffffffffffff191660348301524260488084018290528451808503909101815260689093018452825192820192909220600081815260059092529281205490929060ff161561100057600080fd5b600081815260066020908152604080832080546001600160a01b031990811633178255600180830180546001600160a01b038f16931683179055600283018c905542620151808c020160038401556004830188905560058084018b905560078401889055600890930180546001600160a81b0319169092179091559252808320805460ff19169092179091555182917f7ffc675d721b8768e035a323722842743bb523487b535906abc97e6b3e2095d091a260008181526006602090815260408083206008015481516323b872dd60e01b8152336004820152306024820152604481018b905291516001600160a01b03909116936323b872dd93606480850194919392918390030190829087803b15801561111a57600080fd5b505af115801561112e573d6000803e3d6000fd5b505050506040513d602081101561114457600080fd5b505161114f57600080fd5b5060019695505050505050565b6001546001600160a01b031681565b6040518060400160405280600a815260200169302e302e35616c70686160b01b81525081565b6000828211156111a057600080fd5b50900390565b6000828201838110156111b857600080fd5b939250505056fea2646970667358221220270639091140375d4a12c44e609a244a78f56046eaecbfb9b6ebfafd909425c764736f6c63430007000033",
    "sourcePath": "/media/solidity/DATA/Code/bonedaddy/Postables-Payment-Channel/solidity/AirDropChannels.sol",
    "compiler": {
        "name": "solc",
        "version": "0.7.0+commit.9e61f92b"
    },
    "functionHashes": {
        "VERSION()": "ffa1ad74",
        "admin()": "f851a440",
        "channels(bytes32)": "7a7ebd7b",
        "closeChannel(bytes32,uint8,bytes32,bytes32,bytes32)": "5c9bd273",
        "dev()": "91cca3db",
        "enableAirdrops(bytes32,uint8,bytes32,bytes32,bytes32,uint256)": "56715148",
        "frozen()": "054f7d9c",
        "moderators(address)": "14d0f1ba",
        "openChannel(address,uint256,uint256,uint256)": "f36bdb49",
        "owner()": "8da5cb5b",
        "retrieveAirdrop(bytes32,uint8,bytes32,bytes32,bytes32,uint256)": "515982f6",
        "setAdmin(address)": "704b6c02",
        "transferOwnership(address)": "f2fde38b",
        "verifyProof(bytes32,uint8,bytes32,bytes32)": "91456d3d",
        "withdrawEth()": "a0ef91df"
    },
    "gasEstimates": {
        "creation": {
            "codeDepositCost": "919400",
            "executionCost": "infinite",
            "totalCost": "infinite"
        },
        "external": {
            "": "175",
            "VERSION()": "infinite",
            "admin()": "1103",
            "channels(bytes32)": "8053",
            "closeChannel(bytes32,uint8,bytes32,bytes32,bytes32)": "infinite",
            "dev()": "1077",
            "enableAirdrops(bytes32,uint8,bytes32,bytes32,bytes32,uint256)": "infinite",
            "frozen()": "1051",
            "moderators(address)": "1182",
            "openChannel(address,uint256,uint256,uint256)": "infinite",
            "owner()": "1060",
            "retrieveAirdrop(bytes32,uint8,bytes32,bytes32,bytes32,uint256)": "infinite",
            "setAdmin(address)": "24407",
            "transferOwnership(address)": "24745",
            "verifyProof(bytes32,uint8,bytes32,bytes32)": "infinite",
            "withdrawEth()": "infinite"
        }
    }
}