{
    "contractName": "PaymentChannels",
    "abi": [
        {
            "anonymous": false,
            "inputs": [
                {
                    "indexed": true,
                    "internalType": "address",
                    "name": "_admin",
                    "type": "address"
                },
                {
                    "indexed": true,
                    "internalType": "bool",
                    "name": "_adminSet",
                    "type": "bool"
                }
            ],
            "name": "AdminSet",
            "type": "event"
        },
        {
            "anonymous": false,
            "inputs": [
                {
                    "indexed": true,
                    "internalType": "bytes32",
                    "name": "_channelId",
                    "type": "bytes32"
                }
            ],
            "name": "ChannelClosed",
            "type": "event"
        },
        {
            "anonymous": false,
            "inputs": [
                {
                    "indexed": true,
                    "internalType": "bytes32",
                    "name": "_channelId",
                    "type": "bytes32"
                }
            ],
            "name": "ChannelExpired",
            "type": "event"
        },
        {
            "anonymous": false,
            "inputs": [
                {
                    "indexed": true,
                    "internalType": "bytes32",
                    "name": "_channelId",
                    "type": "bytes32"
                },
                {
                    "indexed": true,
                    "internalType": "address",
                    "name": "_recoveredAddress",
                    "type": "address"
                }
            ],
            "name": "DestinationProofSubmitted",
            "type": "event"
        },
        {
            "anonymous": false,
            "inputs": [
                {
                    "indexed": true,
                    "internalType": "bytes32",
                    "name": "_channelId",
                    "type": "bytes32"
                }
            ],
            "name": "ErcChannelOpened",
            "type": "event"
        },
        {
            "anonymous": false,
            "inputs": [
                {
                    "indexed": true,
                    "internalType": "bytes32",
                    "name": "_channelId",
                    "type": "bytes32"
                }
            ],
            "name": "EthChannelOpened",
            "type": "event"
        },
        {
            "anonymous": false,
            "inputs": [],
            "name": "EthWithdrawn",
            "type": "event"
        },
        {
            "anonymous": false,
            "inputs": [
                {
                    "indexed": true,
                    "internalType": "bytes32",
                    "name": "_channelId",
                    "type": "bytes32"
                },
                {
                    "indexed": false,
                    "internalType": "uint256",
                    "name": "_amount",
                    "type": "uint256"
                },
                {
                    "indexed": false,
                    "internalType": "uint256",
                    "name": "_remainingChannelValue",
                    "type": "uint256"
                }
            ],
            "name": "MicroPaymentWithdrawn",
            "type": "event"
        },
        {
            "anonymous": false,
            "inputs": [
                {
                    "indexed": true,
                    "internalType": "address",
                    "name": "_previousOwner",
                    "type": "address"
                },
                {
                    "indexed": true,
                    "internalType": "address",
                    "name": "_newOwner",
                    "type": "address"
                },
                {
                    "indexed": true,
                    "internalType": "bool",
                    "name": "_ownershipTransferred",
                    "type": "bool"
                }
            ],
            "name": "OwnershipTransferred",
            "type": "event"
        },
        {
            "anonymous": false,
            "inputs": [
                {
                    "indexed": true,
                    "internalType": "bytes32",
                    "name": "_channelId",
                    "type": "bytes32"
                },
                {
                    "indexed": true,
                    "internalType": "address",
                    "name": "_recoveredAddress",
                    "type": "address"
                }
            ],
            "name": "SourceProofSubmitted",
            "type": "event"
        },
        {
            "anonymous": false,
            "inputs": [
                {
                    "indexed": true,
                    "internalType": "address",
                    "name": "_tokenAddress",
                    "type": "address"
                }
            ],
            "name": "TokensWithdrawn",
            "type": "event"
        },
        {
            "stateMutability": "payable",
            "type": "fallback"
        },
        {
            "inputs": [],
            "name": "VERSION",
            "outputs": [
                {
                    "internalType": "string",
                    "name": "",
                    "type": "string"
                }
            ],
            "stateMutability": "view",
            "type": "function"
        },
        {
            "inputs": [],
            "name": "admin",
            "outputs": [
                {
                    "internalType": "address",
                    "name": "",
                    "type": "address"
                }
            ],
            "stateMutability": "view",
            "type": "function"
        },
        {
            "inputs": [
                {
                    "internalType": "bytes32",
                    "name": "_channelId",
                    "type": "bytes32"
                },
                {
                    "internalType": "address",
                    "name": "_tokenAddress",
                    "type": "address"
                }
            ],
            "name": "closeErcChannel",
            "outputs": [
                {
                    "internalType": "bool",
                    "name": "",
                    "type": "bool"
                }
            ],
            "stateMutability": "nonpayable",
            "type": "function"
        },
        {
            "inputs": [],
            "name": "defaultState",
            "outputs": [
                {
                    "internalType": "enum PaymentChannels.ChannelStates",
                    "name": "",
                    "type": "uint8"
                }
            ],
            "stateMutability": "view",
            "type": "function"
        },
        {
            "inputs": [],
            "name": "dev",
            "outputs": [
                {
                    "internalType": "bool",
                    "name": "",
                    "type": "bool"
                }
            ],
            "stateMutability": "view",
            "type": "function"
        },
        {
            "inputs": [
                {
                    "internalType": "bytes32",
                    "name": "",
                    "type": "bytes32"
                }
            ],
            "name": "ercChannels",
            "outputs": [
                {
                    "internalType": "address",
                    "name": "source",
                    "type": "address"
                },
                {
                    "internalType": "address",
                    "name": "destination",
                    "type": "address"
                },
                {
                    "internalType": "address",
                    "name": "tokenAddress",
                    "type": "address"
                },
                {
                    "internalType": "uint256",
                    "name": "value",
                    "type": "uint256"
                },
                {
                    "internalType": "uint256",
                    "name": "closingDate",
                    "type": "uint256"
                },
                {
                    "internalType": "uint256",
                    "name": "openDate",
                    "type": "uint256"
                },
                {
                    "internalType": "bytes32",
                    "name": "channelId",
                    "type": "bytes32"
                },
                {
                    "internalType": "bool",
                    "name": "sourceProofSubmitted",
                    "type": "bool"
                },
                {
                    "internalType": "bool",
                    "name": "destinationProofSubmitted",
                    "type": "bool"
                },
                {
                    "internalType": "enum PaymentChannels.ChannelStates",
                    "name": "state",
                    "type": "uint8"
                }
            ],
            "stateMutability": "view",
            "type": "function"
        },
        {
            "inputs": [
                {
                    "internalType": "bytes32",
                    "name": "",
                    "type": "bytes32"
                }
            ],
            "name": "ethChannels",
            "outputs": [
                {
                    "internalType": "address",
                    "name": "source",
                    "type": "address"
                },
                {
                    "internalType": "address",
                    "name": "destination",
                    "type": "address"
                },
                {
                    "internalType": "uint256",
                    "name": "value",
                    "type": "uint256"
                },
                {
                    "internalType": "uint256",
                    "name": "closingDate",
                    "type": "uint256"
                },
                {
                    "internalType": "uint256",
                    "name": "openDate",
                    "type": "uint256"
                },
                {
                    "internalType": "bytes32",
                    "name": "channelId",
                    "type": "bytes32"
                },
                {
                    "internalType": "bool",
                    "name": "sourceProofSubmitted",
                    "type": "bool"
                },
                {
                    "internalType": "bool",
                    "name": "destinationProofSubmitted",
                    "type": "bool"
                },
                {
                    "internalType": "enum PaymentChannels.ChannelStates",
                    "name": "state",
                    "type": "uint8"
                }
            ],
            "stateMutability": "view",
            "type": "function"
        },
        {
            "inputs": [
                {
                    "internalType": "bytes32",
                    "name": "_channelId",
                    "type": "bytes32"
                },
                {
                    "internalType": "address",
                    "name": "_tokenAddress",
                    "type": "address"
                }
            ],
            "name": "expireErcChannel",
            "outputs": [
                {
                    "internalType": "bool",
                    "name": "",
                    "type": "bool"
                }
            ],
            "stateMutability": "nonpayable",
            "type": "function"
        },
        {
            "inputs": [],
            "name": "frozen",
            "outputs": [
                {
                    "internalType": "bool",
                    "name": "",
                    "type": "bool"
                }
            ],
            "stateMutability": "view",
            "type": "function"
        },
        {
            "inputs": [
                {
                    "internalType": "address",
                    "name": "",
                    "type": "address"
                }
            ],
            "name": "moderators",
            "outputs": [
                {
                    "internalType": "bool",
                    "name": "",
                    "type": "bool"
                }
            ],
            "stateMutability": "view",
            "type": "function"
        },
        {
            "inputs": [
                {
                    "internalType": "address",
                    "name": "_tokenAddress",
                    "type": "address"
                },
                {
                    "internalType": "address",
                    "name": "_destination",
                    "type": "address"
                },
                {
                    "internalType": "uint256",
                    "name": "_channelValueInWei",
                    "type": "uint256"
                },
                {
                    "internalType": "uint256",
                    "name": "_durationInDays",
                    "type": "uint256"
                }
            ],
            "name": "openErcChannel",
            "outputs": [
                {
                    "internalType": "bool",
                    "name": "",
                    "type": "bool"
                }
            ],
            "stateMutability": "nonpayable",
            "type": "function"
        },
        {
            "inputs": [
                {
                    "internalType": "address",
                    "name": "_destination",
                    "type": "address"
                },
                {
                    "internalType": "uint256",
                    "name": "_channelValueInWei",
                    "type": "uint256"
                },
                {
                    "internalType": "uint256",
                    "name": "_durationInDays",
                    "type": "uint256"
                }
            ],
            "name": "openEthChannel",
            "outputs": [
                {
                    "internalType": "bool",
                    "name": "",
                    "type": "bool"
                }
            ],
            "stateMutability": "payable",
            "type": "function"
        },
        {
            "inputs": [],
            "name": "owner",
            "outputs": [
                {
                    "internalType": "address",
                    "name": "",
                    "type": "address"
                }
            ],
            "stateMutability": "view",
            "type": "function"
        },
        {
            "inputs": [
                {
                    "internalType": "address",
                    "name": "_newAdmin",
                    "type": "address"
                }
            ],
            "name": "setAdmin",
            "outputs": [
                {
                    "internalType": "bool",
                    "name": "",
                    "type": "bool"
                }
            ],
            "stateMutability": "nonpayable",
            "type": "function"
        },
        {
            "inputs": [
                {
                    "internalType": "bytes32",
                    "name": "_h",
                    "type": "bytes32"
                },
                {
                    "internalType": "uint8",
                    "name": "_v",
                    "type": "uint8"
                },
                {
                    "internalType": "bytes32",
                    "name": "_r",
                    "type": "bytes32"
                },
                {
                    "internalType": "bytes32",
                    "name": "_s",
                    "type": "bytes32"
                },
                {
                    "internalType": "bytes32",
                    "name": "_channelId",
                    "type": "bytes32"
                }
            ],
            "name": "submitErcDestinationProof",
            "outputs": [
                {
                    "internalType": "bool",
                    "name": "",
                    "type": "bool"
                }
            ],
            "stateMutability": "nonpayable",
            "type": "function"
        },
        {
            "inputs": [
                {
                    "internalType": "bytes32",
                    "name": "_h",
                    "type": "bytes32"
                },
                {
                    "internalType": "uint8",
                    "name": "_v",
                    "type": "uint8"
                },
                {
                    "internalType": "bytes32",
                    "name": "_r",
                    "type": "bytes32"
                },
                {
                    "internalType": "bytes32",
                    "name": "_s",
                    "type": "bytes32"
                },
                {
                    "internalType": "bytes32",
                    "name": "_channelId",
                    "type": "bytes32"
                },
                {
                    "internalType": "uint256",
                    "name": "_paymentId",
                    "type": "uint256"
                },
                {
                    "internalType": "uint256",
                    "name": "_amount",
                    "type": "uint256"
                }
            ],
            "name": "submitErcMicroPaymentProof",
            "outputs": [
                {
                    "internalType": "bool",
                    "name": "",
                    "type": "bool"
                }
            ],
            "stateMutability": "nonpayable",
            "type": "function"
        },
        {
            "inputs": [
                {
                    "internalType": "bytes32",
                    "name": "_h",
                    "type": "bytes32"
                },
                {
                    "internalType": "uint8",
                    "name": "_v",
                    "type": "uint8"
                },
                {
                    "internalType": "bytes32",
                    "name": "_r",
                    "type": "bytes32"
                },
                {
                    "internalType": "bytes32",
                    "name": "_s",
                    "type": "bytes32"
                },
                {
                    "internalType": "bytes32",
                    "name": "_channelId",
                    "type": "bytes32"
                }
            ],
            "name": "submitErcSourceProof",
            "outputs": [
                {
                    "internalType": "bool",
                    "name": "",
                    "type": "bool"
                }
            ],
            "stateMutability": "nonpayable",
            "type": "function"
        },
        {
            "inputs": [
                {
                    "internalType": "bytes32",
                    "name": "_h",
                    "type": "bytes32"
                },
                {
                    "internalType": "uint8",
                    "name": "_v",
                    "type": "uint8"
                },
                {
                    "internalType": "bytes32",
                    "name": "_r",
                    "type": "bytes32"
                },
                {
                    "internalType": "bytes32",
                    "name": "_s",
                    "type": "bytes32"
                },
                {
                    "internalType": "bytes32",
                    "name": "_channelId",
                    "type": "bytes32"
                }
            ],
            "name": "submitEthDestinationProof",
            "outputs": [
                {
                    "internalType": "bool",
                    "name": "",
                    "type": "bool"
                }
            ],
            "stateMutability": "nonpayable",
            "type": "function"
        },
        {
            "inputs": [
                {
                    "internalType": "bytes32",
                    "name": "_h",
                    "type": "bytes32"
                },
                {
                    "internalType": "uint8",
                    "name": "_v",
                    "type": "uint8"
                },
                {
                    "internalType": "bytes32",
                    "name": "_r",
                    "type": "bytes32"
                },
                {
                    "internalType": "bytes32",
                    "name": "_s",
                    "type": "bytes32"
                },
                {
                    "internalType": "bytes32",
                    "name": "_channelId",
                    "type": "bytes32"
                },
                {
                    "internalType": "uint256",
                    "name": "_paymentId",
                    "type": "uint256"
                },
                {
                    "internalType": "uint256",
                    "name": "_amount",
                    "type": "uint256"
                }
            ],
            "name": "submitEthMicroPaymentProof",
            "outputs": [
                {
                    "internalType": "bool",
                    "name": "",
                    "type": "bool"
                }
            ],
            "stateMutability": "nonpayable",
            "type": "function"
        },
        {
            "inputs": [
                {
                    "internalType": "bytes32",
                    "name": "_h",
                    "type": "bytes32"
                },
                {
                    "internalType": "uint8",
                    "name": "_v",
                    "type": "uint8"
                },
                {
                    "internalType": "bytes32",
                    "name": "_r",
                    "type": "bytes32"
                },
                {
                    "internalType": "bytes32",
                    "name": "_s",
                    "type": "bytes32"
                },
                {
                    "internalType": "bytes32",
                    "name": "_channelId",
                    "type": "bytes32"
                }
            ],
            "name": "submitEthSourceProof",
            "outputs": [
                {
                    "internalType": "bool",
                    "name": "",
                    "type": "bool"
                }
            ],
            "stateMutability": "nonpayable",
            "type": "function"
        },
        {
            "inputs": [
                {
                    "internalType": "address",
                    "name": "_newOwner",
                    "type": "address"
                }
            ],
            "name": "transferOwnership",
            "outputs": [
                {
                    "internalType": "bool",
                    "name": "",
                    "type": "bool"
                }
            ],
            "stateMutability": "nonpayable",
            "type": "function"
        },
        {
            "inputs": [],
            "name": "withdrawEth",
            "outputs": [
                {
                    "internalType": "bool",
                    "name": "",
                    "type": "bool"
                }
            ],
            "stateMutability": "nonpayable",
            "type": "function"
        },
        {
            "inputs": [
                {
                    "internalType": "address",
                    "name": "_tokenAddress",
                    "type": "address"
                }
            ],
            "name": "withdrawTokens",
            "outputs": [
                {
                    "internalType": "bool",
                    "name": "",
                    "type": "bool"
                }
            ],
            "stateMutability": "nonpayable",
            "type": "function"
        },
        {
            "stateMutability": "payable",
            "type": "receive"
        }
    ],
    "bytecode": "60c0604052601c60808190527f19457468657265756d205369676e6564204d6573736167653a0a33320000000060a090815262000040916003919062000089565b506004805460ff191660011761ff00191690553480156200006057600080fd5b5060008054336001600160a01b0319918216811790925560018054909116909117905562000125565b828054600181600116156101000203166002900490600052602060002090601f016020900481019282601f10620000cc57805160ff1916838001178555620000fc565b82800160010185558215620000fc579182015b82811115620000fc578251825591602001919060010190620000df565b506200010a9291506200010e565b5090565b5b808211156200010a57600081556001016200010f565b611f1f80620001356000396000f3fe6080604052600436106101445760003560e01c8063914c62da116100b6578063c21d92d81161006f578063c21d92d8146105c5578063f2fde38b1461060a578063f851a4401461063d578063f8be342e14610652578063fcf0301d14610688578063ffa1ad74146106cd5761014b565b8063914c62da1461043a57806391cca3db1461048b5780639ef3ae9d146104a0578063a0ef91df146104e5578063aa13a612146104fa578063b1653e671461052c5761014b565b806349df728c1161010857806349df728c146102d4578063704b6c021461030757806378bdd8391461033a5780637baccc6d1461037f5780638da5cb5b146103d05780638db53802146104015761014b565b8063054f7d9c1461014d57806314d0f1ba146101765780632b2b4a75146101a95780633f73cfd7146101f25780633f93cc451461022b5761014b565b3661014b57005b005b34801561015957600080fd5b50610162610757565b604080519115158252519081900360200190f35b34801561018257600080fd5b506101626004803603602081101561019957600080fd5b50356001600160a01b0316610767565b3480156101b557600080fd5b50610162600480360360808110156101cc57600080fd5b506001600160a01b0381358116916020810135909116906040810135906060013561077c565b3480156101fe57600080fd5b506101626004803603604081101561021557600080fd5b50803590602001356001600160a01b031661093a565b34801561023757600080fd5b506102556004803603602081101561024e57600080fd5b5035610ae2565b604051808b6001600160a01b031681526020018a6001600160a01b03168152602001896001600160a01b03168152602001888152602001878152602001868152602001858152602001841515815260200183151581526020018260038111156102ba57fe5b81526020019a505050505050505050505060405180910390f35b3480156102e057600080fd5b50610162600480360360208110156102f757600080fd5b50356001600160a01b0316610b4c565b34801561031357600080fd5b506101626004803603602081101561032a57600080fd5b50356001600160a01b0316610cb2565b34801561034657600080fd5b50610162600480360360a081101561035d57600080fd5b5080359060ff6020820135169060408101359060608101359060800135610d30565b34801561038b57600080fd5b50610162600480360360e08110156103a257600080fd5b5080359060ff6020820135169060408101359060608101359060808101359060a08101359060c00135610ee5565b3480156103dc57600080fd5b506103e56111b6565b604080516001600160a01b039092168252519081900360200190f35b34801561040d57600080fd5b506101626004803603604081101561042457600080fd5b50803590602001356001600160a01b03166111c5565b34801561044657600080fd5b50610162600480360360e081101561045d57600080fd5b5080359060ff6020820135169060408101359060608101359060808101359060a08101359060c0013561132e565b34801561049757600080fd5b50610162611595565b3480156104ac57600080fd5b50610162600480360360a08110156104c357600080fd5b5080359060ff602082013516906040810135906060810135906080013561159e565b3480156104f157600080fd5b50610162611764565b6101626004803603606081101561051057600080fd5b506001600160a01b0381351690602081013590604001356117fd565b34801561053857600080fd5b506105566004803603602081101561054f57600080fd5b503561195e565b604051808a6001600160a01b03168152602001896001600160a01b03168152602001888152602001878152602001868152602001858152602001841515815260200183151581526020018260038111156105ac57fe5b8152602001995050505050505050505060405180910390f35b3480156105d157600080fd5b50610162600480360360a08110156105e857600080fd5b5080359060ff60208201351690604081013590606081013590608001356119bf565b34801561061657600080fd5b506101626004803603602081101561062d57600080fd5b50356001600160a01b0316611b42565b34801561064957600080fd5b506103e5611bc3565b34801561065e57600080fd5b50610667611bd2565b6040518082600381111561067757fe5b815260200191505060405180910390f35b34801561069457600080fd5b50610162600480360360a08110156106ab57600080fd5b5080359060ff6020820135169060408101359060608101359060800135611be0565b3480156106d957600080fd5b506106e2611d84565b6040805160208082528351818301528351919283929083019185019080838360005b8381101561071c578181015183820152602001610704565b50505050905090810190601f1680156107495780820380516001836020036101000a031916815260200191505b509250505060405180910390f35b600154600160a01b900460ff1681565b60026020526000908152604090205460ff1681565b6040805133606090811b6020808401919091526bffffffffffffffffffffffff1987831b811660348501529188901b909116604883015242605c8084019190915283518084039091018152607c9092018352815191810191909120600081815260089092529181205490919060ff16156107f557600080fd5b6000818152600860209081526040808320805460ff1916600190811790915560069283905281842080546001600160a01b03199081163317825591810180546001600160a01b038c811691851691909117909155600282018054918d169190931617909155600381018890554262015180880281016004830155600582015590910183905551879183917f41063c1edfbec39fdaea4c9b553c1fb2832454799895fcd189a36facbb7327629190a2604080516323b872dd60e01b81523360048201523060248201526044810187905290516001600160a01b038316916323b872dd9160648083019260209291908290030181600087803b1580156108f857600080fd5b505af115801561090c573d6000803e3d6000fd5b505050506040513d602081101561092257600080fd5b505161092d57600080fd5b5060019695505050505050565b60008281526008602052604081205460ff1661095557600080fd5b6000808481526006602052604090206007015462010000900460ff16600381111561097c57fe5b1461098657600080fd5b6000838152600660205260409020546001600160a01b031633146109a957600080fd5b6000838152600660205260409020600201546001600160a01b038381169116146109d257600080fd5b600083815260066020526040812060038101805492905560070180546001919062ff0000191662010000830217905550604051839085907fb0b1a2376e938b887ac88a6049e44d46d0042dd3d17f70089e61339792cb2fbe90600090a26040516001600160a01b03851690600080516020611eca83398151915290600090a26040805163a9059cbb60e01b81523360048201526024810184905290516001600160a01b0383169163a9059cbb9160448083019260209291908290030181600087803b158015610aa057600080fd5b505af1158015610ab4573d6000803e3d6000fd5b505050506040513d6020811015610aca57600080fd5b5051610ad557600080fd5b6001925050505b92915050565b6006602081905260009182526040909120805460018201546002830154600384015460048501546005860154968601546007909601546001600160a01b039586169794861696939095169491939092909160ff80821691610100810482169162010000909104168a565b600080546001600160a01b0316331480610b7057506001546001600160a01b031633145b610b7957600080fd5b60045460ff16610b8857600080fd5b604080516370a0823160e01b8152306004820152905183916000916001600160a01b038416916370a08231916024808301926020929190829003018186803b158015610bd357600080fd5b505afa158015610be7573d6000803e3d6000fd5b505050506040513d6020811015610bfd57600080fd5b50516040519091506001600160a01b03851690600080516020611eca83398151915290600090a26040805163a9059cbb60e01b81523360048201526024810183905290516001600160a01b0384169163a9059cbb9160448083019260209291908290030181600087803b158015610c7357600080fd5b505af1158015610c87573d6000803e3d6000fd5b505050506040513d6020811015610c9d57600080fd5b5051610ca857600080fd5b5060019392505050565b600080546001600160a01b03163314610cca57600080fd5b6001546001600160a01b0383811691161415610ce557600080fd5b600180546001600160a01b0319166001600160a01b03841690811782556040517fe68d2c359a771606c400cf8b87000cf5864010363d6a736e98f5047b7bbe18e990600090a3919050565b60008181526008602052604081205460ff16610d4b57600080fd5b6000808381526006602052604090206007015462010000900460ff166003811115610d7257fe5b14610d7c57600080fd5b60008281526006602052604090206007015460ff1615610d9b57600080fd5b600060018787878760405160008152602001604052604051808581526020018460ff1681526020018381526020018281526020019450505050506020604051602081039080840390855afa158015610df7573d6000803e3d6000fd5b505060408051601f1901516000868152600660205291909120549092506001600160a01b038084169116149050610e2a57fe5b60008381526006602090815260408083206007018054600160ff199182168117909255600984528285208c86528452828520338652909352818420805490931617909155516001600160a01b0383169185917fef7fbbdebba5df7bf59c00d02ad872d452a67a5a4a4170adc3c95f794b478a679190a3610eab836001611daa565b1561092d57600083815260066020526040902060070180546002919062ff0000191662010000835b02179055505060019695505050505050565b60008381526008602052604081205460ff16610f0057600080fd5b6000808581526006602052604090206007015462010000900460ff166003811115610f2757fe5b14610f3157600080fd5b600084815260066020526040902060030154610f4c57600080fd5b6000848152600660205260409020600101546001600160a01b03163314610f7257600080fd5b6000848484604051602001808481526020018381526020018281526020019350505050604051602081830303815290604052805190602001209050600060038260405160200180838054600181600116156101000203166002900480156110105780601f10610fee576101008083540402835291820191611010565b820191906000526020600020905b815481529060010190602001808311610ffc575b5050918252506040805180830381526020928301909152805191012091505089811461103857fe5b600060018b8b8b8b60405160008152602001604052604051808581526020018460ff1681526020018381526020018281526020019450505050506020604051602081039080840390855afa158015611094573d6000803e3d6000fd5b505060408051601f19015160008a8152600660205291909120549092506001600160a01b0380841691161490506110c757fe5b6000878152600660205260408120600301546110e39087611eb4565b600089815260066020526040808220600381018490556002015490519293506001600160a01b0316918291600080516020611eca83398151915291a26040805163a9059cbb60e01b81523360048201526024810189905290516001600160a01b0383169163a9059cbb9160448083019260209291908290030181600087803b15801561116e57600080fd5b505af1158015611182573d6000803e3d6000fd5b505050506040513d602081101561119857600080fd5b50516111a357600080fd5b5060019c9b505050505050505050505050565b6000546001600160a01b031681565b60008281526008602052604081205460ff166111e057600080fd5b600260008481526006602052604090206007015462010000900460ff16600381111561120857fe5b1461121257600080fd5b6000838152600660205260409020600101546001600160a01b0316331461123857600080fd5b6000838152600660205260409020600201546001600160a01b0383811691161461126157600080fd5b6000838152600660205260408120600380820180549390556007909101805462ff0000191662010000830217905550604051839085907fceeab2eef998c17fe96f30f83fbf3c55fc5047f6e40c55a0cf72d236e9d2ba7290600090a26040516001600160a01b03851690600080516020611eca83398151915290600090a26040805163a9059cbb60e01b81523360048201526024810184905290516001600160a01b0383169163a9059cbb9160448083019260209291908290030181600087803b158015610aa057600080fd5b60008381526008602052604081205460ff1661134957600080fd5b6000808581526005602052604090206006015462010000900460ff16600381111561137057fe5b1461137a57600080fd5b60008481526005602052604090206002015461139557600080fd5b6000848152600560205260409020600101546001600160a01b031633146113bb57600080fd5b6000848484604051602001808481526020018381526020018281526020019350505050604051602081830303815290604052805190602001209050600060038260405160200180838054600181600116156101000203166002900480156114595780601f10611437576101008083540402835291820191611459565b820191906000526020600020905b815481529060010190602001808311611445575b5050918252506040805180830381526020928301909152805191012091505089811461148157fe5b600060018b8b8b8b60405160008152602001604052604051808581526020018460ff1681526020018381526020018281526020019450505050506020604051602081039080840390855afa1580156114dd573d6000803e3d6000fd5b505060408051601f19015160008a8152600560205291909120549092506001600160a01b03808416911614905061151057fe5b60008781526005602052604081206002015461152c9087611eb4565b600089815260056020526040808220600201839055519192507fe85db8c769971e615d7122e20c48e239d21cfd4b1a3561caf49010903e1ff5ac91a1604051339087156108fc029088906000818181858888f193505050501580156111a3573d6000803e3d6000fd5b60045460ff1681565b60008181526008602052604081205460ff166115b957600080fd5b6000808381526005602052604090206006015462010000900460ff1660038111156115e057fe5b146115ea57600080fd5b60008281526005602052604090206006015460ff161561160957600080fd5b6000828152600960209081526040808320898452825280832033845290915290205460ff161561163857600080fd5b600060018787878760405160008152602001604052604051808581526020018460ff1681526020018381526020018281526020019450505050506020604051602081039080840390855afa158015611694573d6000803e3d6000fd5b505060408051601f1901516000868152600560205291909120549092506001600160a01b0380841691161490506116c757fe5b6000838152600560209081526040808320600601805460ff19166001179055600982528083208a84528252808320338452909152516001600160a01b0383169185917fef7fbbdebba5df7bf59c00d02ad872d452a67a5a4a4170adc3c95f794b478a679190a3611738836000611daa565b1561092d57600083815260056020526040902060060180546002919062ff000019166201000083610ed3565b600080546001600160a01b031633148061178857506001546001600160a01b031633145b61179157600080fd5b60045460ff166117a057600080fd5b6040517fe85db8c769971e615d7122e20c48e239d21cfd4b1a3561caf49010903e1ff5ac90600090a160405133904780156108fc02916000818181858888f193505050501580156117f5573d6000803e3d6000fd5b506001905090565b600082341461180b57600080fd5b6040805133606090811b6020808401919091529087901b6bffffffffffffffffffffffff19166034830152604882018690524260688084018290528451808503909101815260889093018452825192820192909220600081815260089092529290205490919060ff161561187e57600080fd5b6000818152600860209081526040808320805460ff19166001908117909155600592839052922080546001600160a01b03199081163317825592810180546001600160a01b038b16941693909317909255600282018790554262015180870201600380840191909155600480840186905591830184905590546006909201805461010090930460ff1692909162ff000019909116906201000090849081111561192357fe5b021790555060405181907ec725122f067c5ca4dfb33fb90955e8c8ace1fbba4578cd42779dd95ed21faa90600090a250600195945050505050565b600560208190526000918252604090912080546001820154600283015460038401546004850154958501546006909501546001600160a01b0394851696939094169491939092919060ff808216916101008104821691620100009091041689565b60008181526008602052604081205460ff166119da57600080fd5b6000808381526006602052604090206007015462010000900460ff166003811115611a0157fe5b14611a0b57600080fd5b600082815260066020526040902060070154610100900460ff1615611a2f57600080fd5b600060018787878760405160008152602001604052604051808581526020018460ff1681526020018381526020018281526020019450505050506020604051602081039080840390855afa158015611a8b573d6000803e3d6000fd5b505060408051601f1901516000868152600660205291909120600101549092506001600160a01b038084169116149050611ac157fe5b6000838152600660209081526040808320600701805461ff001916610100179055600982528083208a84528252808320338452909152808220805460ff19166001179055516001600160a01b0383169185917f4bfcb0e4fde38226ea7f6e76bc336e1aa934fec6abce5c6a98826c226c27bcac9190a3610eab836001611daa565b600080546001600160a01b03163314611b5a57600080fd5b6000546001600160a01b0383811691161415611b7557600080fd5b600080546001600160a01b0319166001600160a01b038416908117825560405160019233917f7fdc2a4b6eb39ec3363d710d188620bd1e97b3c434161f187b4d0dc0544faa589190a4919050565b6001546001600160a01b031681565b600454610100900460ff1681565b60008181526008602052604081205460ff16611bfb57600080fd5b6000808381526005602052604090206006015462010000900460ff166003811115611c2257fe5b14611c2c57600080fd5b600082815260056020526040902060060154610100900460ff1615611c5057600080fd5b6000828152600960209081526040808320898452825280832033845290915290205460ff1615611c7f57600080fd5b600060018787878760405160008152602001604052604051808581526020018460ff1681526020018381526020018281526020019450505050506020604051602081039080840390855afa158015611cdb573d6000803e3d6000fd5b505060408051601f1901516000868152600560205291909120600101549092506001600160a01b038084169116149050611d1157fe5b6000838152600560209081526040808320600601805461ff001916610100179055600982528083208a84528252808320338452909152516001600160a01b0383169185917f4bfcb0e4fde38226ea7f6e76bc336e1aa934fec6abce5c6a98826c226c27bcac9190a3611738836000611daa565b6040518060400160405280600a815260200169302e352e30616c70686160b01b81525081565b60008115611e31576000808481526006602052604090206007015462010000900460ff166003811115611dd957fe5b14611de357600080fd5b60008381526006602052604090206007015460ff1615156001148015611e1f5750600083815260066020526040902060070154610100900460ff165b15611e2c57506001610adc565b611eab565b6000808481526005602052604090206006015462010000900460ff166003811115611e5857fe5b14611e6257600080fd5b60008381526005602052604090206006015460ff1615156001148015611e9e5750600083815260056020526040902060060154610100900460ff165b15611eab57506001610adc565b50600092915050565b600082821115611ec357600080fd5b5090039056feb47e37d80bb9227b793caed3e80256b8eac5e891b85d33f583d43ce03cf34273a26469706673582212204779c725330effb33a79741adb81c459284d0f386dcfb01b97d28e8795f57cae64736f6c63430007000033",
    "sourcePath": "/media/solidity/DATA/Code/bonedaddy/Postables-Payment-Channel/solidity/ChannelsV5.sol",
    "compiler": {
        "name": "solc",
        "version": "0.7.0+commit.9e61f92b"
    },
    "functionHashes": {
        "VERSION()": "ffa1ad74",
        "admin()": "f851a440",
        "closeErcChannel(bytes32,address)": "8db53802",
        "defaultState()": "f8be342e",
        "dev()": "91cca3db",
        "ercChannels(bytes32)": "3f93cc45",
        "ethChannels(bytes32)": "b1653e67",
        "expireErcChannel(bytes32,address)": "3f73cfd7",
        "frozen()": "054f7d9c",
        "moderators(address)": "14d0f1ba",
        "openErcChannel(address,address,uint256,uint256)": "2b2b4a75",
        "openEthChannel(address,uint256,uint256)": "aa13a612",
        "owner()": "8da5cb5b",
        "setAdmin(address)": "704b6c02",
        "submitErcDestinationProof(bytes32,uint8,bytes32,bytes32,bytes32)": "c21d92d8",
        "submitErcMicroPaymentProof(bytes32,uint8,bytes32,bytes32,bytes32,uint256,uint256)": "7baccc6d",
        "submitErcSourceProof(bytes32,uint8,bytes32,bytes32,bytes32)": "78bdd839",
        "submitEthDestinationProof(bytes32,uint8,bytes32,bytes32,bytes32)": "fcf0301d",
        "submitEthMicroPaymentProof(bytes32,uint8,bytes32,bytes32,bytes32,uint256,uint256)": "914c62da",
        "submitEthSourceProof(bytes32,uint8,bytes32,bytes32,bytes32)": "9ef3ae9d",
        "transferOwnership(address)": "f2fde38b",
        "withdrawEth()": "a0ef91df",
        "withdrawTokens(address)": "49df728c"
    },
    "gasEstimates": {
        "creation": {
            "codeDepositCost": "1593400",
            "executionCost": "infinite",
            "totalCost": "infinite"
        },
        "external": {
            "": "219",
            "VERSION()": "infinite",
            "admin()": "1103",
            "closeErcChannel(bytes32,address)": "infinite",
            "defaultState()": "1136",
            "dev()": "1055",
            "ercChannels(bytes32)": "7299",
            "ethChannels(bytes32)": "6461",
            "expireErcChannel(bytes32,address)": "infinite",
            "frozen()": "1051",
            "moderators(address)": "1182",
            "openErcChannel(address,address,uint256,uint256)": "infinite",
            "openEthChannel(address,uint256,uint256)": "167197",
            "owner()": "1148",
            "setAdmin(address)": "24385",
            "submitErcDestinationProof(bytes32,uint8,bytes32,bytes32,bytes32)": "infinite",
            "submitErcMicroPaymentProof(bytes32,uint8,bytes32,bytes32,bytes32,uint256,uint256)": "infinite",
            "submitErcSourceProof(bytes32,uint8,bytes32,bytes32,bytes32)": "infinite",
            "submitEthDestinationProof(bytes32,uint8,bytes32,bytes32,bytes32)": "infinite",
            "submitEthMicroPaymentProof(bytes32,uint8,bytes32,bytes32,bytes32,uint256,uint256)": "infinite",
            "submitEthSourceProof(bytes32,uint8,bytes32,bytes32,bytes32)": "infinite",
            "transferOwnership(address)": "24767",
            "withdrawEth()": "infinite",
            "withdrawTokens(address)": "infinite"
        },
        "internal": {
            "verifyDoubleProof(bytes32,bool)": "2826"
        }
    }
}